:020000000AAB49
:020001000AAC47
:020002000AAB47
:020003000AAC45
:020004000AAC44
:020005000AAC43
:020006000AAC42
:020007000AAC41
:020008000AAC40
:020009000AAB40
:02000A000AAB3F
:02000B000AAC3D
:02000C000AAC3C
:02000D000AAC3B
:02000E000AAC3A
:02000F000AAC39
:020010000AAA3A
:020011000AAB38
:020012000AAB37
:020013000AAB36
:020014000AAB35
:020015000AAC33
:020016000AAB33
:020017000AAA33
:020018000AAC30
:020019000AAC2F
:02001A000AAB2F
:02001B000AAC2D
:02001C000AAC2C
:02001D000AAC2B
:02001E000AAC2A
:02001F000AAD28
:020020000AAC28
:020021000AAC27
:020022000AAC26
:020023000AAC25
:020024000AAD23
:020025000AAB24
:020026000AAD21
:020027000AAC21
:020028000AAD1F
:020029000AAD1E
:02002A000AAC1E
:02002B000AAC1D
:02002C000AAC1C
:02002D000AAC1B
:02002E000AAC1A
:02002F000AAC19
:020030000AAB19
:020031000AAC17
:020032000AAD15
:020033000AAC15
:020034000AAC14
:020035000AAB14
:020036000AAC12
:020037000AAC11
:020038000AAC10
:020039000AAC0F
:02003A000AAB0F
:02003B000AAC0D
:02003C000AAC0C
:02003D000AAB0C
:02003E000AAB0B
:02003F000AAC09
:020040000AAB09
:020041000AAB08
:020042000AAD05
:020043000AAC05
:020044000AAC04
:020045000AAC03
:020046000AAD01
:020047000AAC01
:020048000AAC00
:020049000AACFF
:02004A000AACFE
:02004B000AACFD
:02004C000AABFD
:02004D000AABFC
:02004E000AABFB
:02004F000AABFA
:020050000AABF9
:020051000AACF7
:020052000AABF7
:020053000AABF6
:020054000AABF5
:020055000AABF4
:020056000AACF2
:020057000AACF1
:020058000AABF1
:020059000AABF0
:02005A000AABEF
:02005B000AABEE
:02005C000AACEC
:02005D000AACEB
:02005E000AACEA
:02005F000AACE9
:020060000AADE7
:020061000AADE6
:020062000AACE6
:020063000AACE5
:020064000AACE4
:020065000AACE3
:020066000AABE3
:020067000AABE2
:020068000AABE1
:020069000AACDF
:02006A000AACDE
:02006B000AADDC
:02006C000AACDC
:02006D000AACDB
:02006E000AACDA
:02006F000AACD9
:020070000AABD9
:020071000AABD8
:020072000AACD6
:020073000AACD5
:020074000AACD4
:020075000AABD4
:020076000AACD2
:020077000AACD1
:020078000AACD0
:020079000AABD0
:02007A000AACCE
:02007B000AADCC
:02007C000AADCB
:02007D000AACCB
:02007E000AABCB
:02007F000AACC9
:020080000AADC7
:020081000AAEC5
:020082000AACC6
:020083000AABC6
:020084000AACC4
:020085000AADC2
:020086000AABC3
:020087000AABC2
:020088000AACC0
:020089000AADBE
:02008A000AACBE
:02008B000AABBE
:02008C000AACBC
:02008D000AACBB
:02008E000AABBB
:02008F000AACB9
:020090000AACB8
:020091000AACB7
:020092000AABB7
:020093000AACB5
:020094000AACB4
:020095000AADB2
:020096000AACB2
:020097000AACB1
:020098000AADAF
:020099000AACAF
:02009A000AACAE
:02009B000AABAE
:02009C000AABAD
:02009D000AABAC
:02009E000AACAA
:02009F000AACA9
:0200A0000AACA8
:0200A1000AACA7
:0200A2000AACA6
:0200A3000AACA5
:0200A4000AACA4
:0200A5000AABA4
:0200A6000AACA2
:0200A7000AACA1
:0200A8000AACA0
:0200A9000AAC9F
:0200AA000AAC9E
:0200AB000AAC9D
:0200AC000AAD9B
:0200AD000AAC9B
:0200AE000AAB9B
:0200AF000AAC99
:0200B0000AAC98
:0200B1000AAC97
:0200B2000AAC96
:0200B3000AAC95
:0200B4000AAC94
:0200B5000AAC93
:0200B6000AAC92
:0200B7000AAC91
:0200B8000AAB91
:0200B9000AAB90
:0200BA000AAC8E
:0200BB000AAB8E
:0200BC000AAC8C
:0200BD000AAC8B
:0200BE000AAC8A
:0200BF000AAC89
:0200C0000AAC88
:0200C1000AAD86
:0200C2000AAD85
:0200C3000AAC85
:0200C4000AAB85
:0200C5000AAD82
:0200C6000AAD81
:0200C7000AAD80
:0200C8000AAC80
:0200C9000AAB80
:0200CA000AAC7E
:0200CB000AAD7C
:0200CC000AAD7B
:0200CD000AAC7B
:0200CE000AAB7B
:0200CF000AAD78
:0200D0000AAC78
:0200D1000AAC77
:0200D2000AAC76
:0200D3000AAD74
:0200D4000AAC74
:0200D5000AAC73
:0200D6000AAC72
:0200D7000AAC71
:0200D8000AAB71
:0200D9000AAC6F
:0200DA000AAC6E
:0200DB000AAC6D
:0200DC000AAB6D
:0200DD000AAC6B
:0200DE000AAB6B
:0200DF000AAB6A
:0200E0000AAC68
:0200E1000AAC67
:0200E2000AAC66
:0200E3000AAB66
:0200E4000AAB65
:0200E5000AAB64
:0200E6000AAB63
:0200E7000AAC61
:0200E8000AAC60
:0200E9000AAC5F
:0200EA000AAC5E
:0200EB000AAC5D
:0200EC000AAC5C
:0200ED000AAD5A
:0200EE000AAC5A
:0200EF000AAC59
:0200F0000AAC58
:0200F1000AAC57
:0200F2000AAC56
:0200F3000AAC55
:0200F4000AAB55
:0200F5000AAC53
:0200F6000AAC52
:0200F7000AAC51
:0200F8000AAB51
:0200F9000AAC4F
:0200FA000AAB4F
:0200FB000AAB4E
:0200FC000AAB4D
:0200FD000AAA4D
:0200FE000AAB4B
:0200FF000AAB4A
:020100000AAB48
:020101000AAB47
:020102000AAB46
:020103000AAC44
:020104000AAC43
:020105000AAC42
:020106000AAB42
:020107000AAD3F
:020108000AAD3E
:020109000AAC3E
:02010A000AAC3D
:02010B000AAB3D
:02010C000AAC3B
:02010D000AAC3A
:02010E000AAC39
:02010F000AAB39
:020110000AAD36
:020111000AAC36
:020112000AAC35
:020113000AAB35
:020114000AAC33
:020115000AAC32
:020116000AAC31
:020117000AAD2F
:020118000AAC2F
:020119000AAC2E
:02011A000AAB2E
:02011B000AAC2C
:02011C000AAB2C
:02011D000AAC2A
:02011E000AAB2A
:02011F000AAC28
:020120000AAC27
:020121000AAB27
:020122000AAB26
:020123000AAC24
:020124000AAC23
:020125000AAB23
:020126000AAB22
:020127000AAC20
:020128000AAB20
:020129000AAB1F
:02012A000AAB1E
:02012B000AAC1C
:02012C000AAB1C
:02012D000AAC1A
:02012E000AAC19
:02012F000AAB19
:020130000AAB18
:020131000AAC16
:020132000AAC15
:020133000AAC14
:020134000AAB14
:020135000AAC12
:020136000AAC11
:020137000AAC10
:020138000AAC0F
:020139000AAC0E
:02013A000AAD0C
:02013B000AAC0C
:02013C000AAC0B
:02013D000AAC0A
:02013E000AAB0A
:02013F000AAB09
:020140000AAC07
:020141000AAC06
:020142000AAC05
:020143000AAC04
:020144000AAC03
:020145000AAB03
:020146000AAC01
:020147000AAC00
:020148000AAB00
:020149000AACFE
:02014A000AABFE
:02014B000AACFC
:02014C000AADFA
:02014D000AACFA
:02014E000AADF8
:02014F000AACF8
:020150000AADF6
:020151000AADF5
:020152000AACF5
:020153000AACF4
:020154000AACF3
:020155000AACF2
:020156000AABF2
:020157000AACF0
:020158000AACEF
:020159000AACEE
:02015A000AACED
:02015B000AADEB
:02015C000AACEB
:02015D000AACEA
:02015E000AACE9
:02015F000AACE8
:020160000AACE7
:020161000AACE6
:020162000AABE6
:020163000AACE4
:020164000AACE3
:020165000AACE2
:020166000AABE2
:020167000AABE1
:020168000AACDF
:020169000AABDF
:02016A000AACDD
:02016B000AABDD
:02016C000AABDC
:02016D000AABDB
:02016E000AACD9
:02016F000AACD8
:020170000AACD7
:020171000AADD5
:020172000AACD5
:020173000AACD4
:020174000AACD3
:020175000AABD3
:020176000AABD2
:020177000AABD1
:020178000AACCF
:020179000AACCE
:02017A000AACCD
:02017B000AADCB
:02017C000AACCB
:02017D000AACCA
:02017E000AACC9
:02017F000AABC9
:020180000AABC8
:020181000AACC6
:020182000AABC6
:020183000AABC5
:020184000AACC3
:020185000AABC3
:020186000AABC2
:020187000AABC1
:020188000AABC0
:020189000AACBE
:02018A000AACBD
:02018B000AACBC
:02018C000AACBB
:02018D000AACBA
:02018E000AACB9
:02018F000AABB9
:020190000AACB7
:020191000AADB5
:020192000AACB5
:020193000AABB5
:020194000AABB4
:020195000AACB2
:020196000AACB1
:020197000AACB0
:020198000AABB0
:020199000AACAE
:02019A000AACAD
:02019B000AACAC
:02019C000AACAB
:02019D000AABAB
:02019E000AABAA
:02019F000AADA7
:0201A0000AACA7
:0201A1000AACA6
:0201A2000AACA5
:0201A3000AACA4
:0201A4000AABA4
:0201A5000AABA3
:0201A6000AADA0
:0201A7000AAD9F
:0201A8000AAC9F
:0201A9000AAC9E
:0201AA000AAC9D
:0201AB000AAC9C
:0201AC000AAC9B
:0201AD000AAC9A
:0201AE000AAB9A
:0201AF000AAC98
:0201B0000AAC97
:0201B1000AAB97
:0201B2000AAC95
:0201B3000AAC94
:0201B4000AAB94
:0201B5000AAC92
:0201B6000AAC91
:0201B7000AAC90
:0201B8000AAC8F
:0201B9000AAC8E
:0201BA000AAB8E
:0201BB000AAB8D
:0201BC000AAB8C
:0201BD000AAC8A
:0201BE000AAC89
:0201BF000AAB89
:0201C0000AAC87
:0201C1000AAD85
:0201C2000AAC85
:0201C3000AAC84
:0201C4000AAB84
:0201C5000AAC82
:0201C6000AAC81
:0201C7000AAC80
:0201C8000AAC7F
:0201C9000AAC7E
:0201CA000AAB7E
:0201CB000AAD7B
:0201CC000AAC7B
:0201CD000AAC7A
:0201CE000AAC79
:0201CF000AAC78
:0201D0000AAC77
:0201D1000AAC76
:0201D2000AAC75
:0201D3000AAC74
:0201D4000AAB74
:0201D5000AAC72
:0201D6000AAC71
:0201D7000AAC70
:0201D8000AAD6E
:0201D9000AAC6E
:0201DA000AAC6D
:0201DB000AAC6C
:0201DC000AAC6B
:0201DD000AAC6A
:0201DE000AAC69
:0201DF000AAC68
:0201E0000AAB68
:0201E1000AAB67
:0201E2000AAB66
:0201E3000AAC64
:0201E4000AAC63
:0201E5000AAC62
:0201E6000AAC61
:0201E7000AAB61
:0201E8000AAC5F
:0201E9000AAB5F
:0201EA000AAC5D
:0201EB000AAB5D
:0201EC000AAC5B
:0201ED000AAC5A
:0201EE000AAC59
:0201EF000AAC58
:0201F0000AAC57
:0201F1000AAD55
:0201F2000AAC55
:0201F3000AAC54
:0201F4000AAD52
:0201F5000AAD51
:0201F6000AAC51
:0201F7000AAD4F
:0201F8000AAC4F
:0201F9000AAD4D
:0201FA000AAD4C
:0201FB000AAD4B
:0201FC000AAC4B
:0201FD000AAD49
:0201FE000AAD48
:0201FF000AAC48
:020200000AAC46
:020201000AAD44
:020202000AAC44
:020203000AAC43
:020204000AAC42
:020205000AAB42
:020206000AAC40
:020207000AAC3F
:020208000AAC3E
:020209000AAC3D
:02020A000AAC3C
:02020B000AAC3B
:02020C000AAC3A
:02020D000AAC39
:02020E000AAC38
:02020F000AAD36
:020210000AAD35
:020211000AAC35
:020212000AAC34
:020213000AAC33
:020214000AAC32
:020215000AAC31
:020216000AAC30
:020217000AAC2F
:020218000AAD2D
:020219000AAB2E
:02021A000AAA2E
:02021B000AAC2B
:02021C000AAB2B
:02021D000AAB2A
:02021E000AAB29
:02021F000AAC27
:020220000AAB27
:020221000AAB26
:020222000AAC24
:020223000AAD22
:020224000AAB23
:020225000AAC21
:020226000AAB21
:020227000AAC1F
:020228000AAC1E
:020229000AAC1D
:02022A000AAC1C
:02022B000AAC1B
:02022C000AAC1A
:02022D000AAC19
:02022E000AAB19
:02022F000AAC17
:020230000AAC16
:020231000AAB16
:020232000AAB15
:020233000AAC13
:020234000AAC12
:020235000AAC11
:020236000AAC10
:020237000AAD0E
:020238000AAC0E
:020239000AAC0D
:02023A000AAB0D
:02023B000AAC0B
:02023C000AAC0A
:02023D000AAC09
:02023E000AAC08
:02023F000AAC07
:020240000AAB07
:020241000AAC05
:020242000AAB05
:020243000AAC03
:020244000AAC02
:020245000AAC01
:020246000AAC00
:020247000AAA01
:020248000AABFF
:020249000AABFE
:02024A000AACFC
:02024B000AACFB
:02024C000AACFA
:02024D000AACF9
:02024E000AACF8
:02024F000AABF8
:020250000AACF6
:020251000AABF6
:020252000AABF5
:020253000AABF4
:020254000AABF3
:020255000AABF2
:020256000AABF1
:020257000AABF0
:020258000AABEF
:020259000AACED
:02025A000AABED
:02025B000AABEC
:02025C000AABEB
:02025D000AACE9
:02025E000AACE8
:02025F000AACE7
:020260000AABE7
:020261000AABE6
:020262000AACE4
:020263000AACE3
:020264000AACE2
:020265000AABE2
:020266000AACE0
:020267000AACDF
:020268000AACDE
:020269000AACDD
:02026A000AABDD
:02026B000AACDB
:02026C000AABDB
:02026D000AACD9
:02026E000AABD9
:02026F000AABD8
:020270000AADD5
:020271000AABD6
:020272000AACD4
:020273000AABD4
:020274000AABD3
:020275000AABD2
:020276000AABD1
:020277000AABD0
:020278000AABCF
:020279000AABCE
:02027A000AAACE
:02027B000AABCC
:02027C000AACCA
:02027D000AABCA
:02027E000AACC8
:02027F000AABC8
:020280000AACC6
:020281000AACC5
:020282000AABC5
:020283000AACC3
:020284000AACC2
:020285000AACC1
:020286000AACC0
:020287000AACBF
:020288000AABBF
:020289000AACBD
:02028A000AABBD
:02028B000AABBC
:02028C000AABBB
:02028D000AACB9
:02028E000AABB9
:02028F000AABB8
:020290000AABB7
:020291000AABB6
:020292000AACB4
:020293000AADB2
:020294000AABB3
:020295000AACB1
:020296000AABB1
:020297000AABB0
:020298000AACAE
:020299000AACAD
:02029A000AACAC
:02029B000AACAB
:02029C000AACAA
:02029D000AACA9
:02029E000AACA8
:02029F000AACA7
:0202A0000AACA6
:0202A1000AADA4
:0202A2000AACA4
:0202A3000AACA3
:0202A4000AACA2
:0202A5000AADA0
:0202A6000AAD9F
:0202A7000AAC9F
:0202A8000AAC9E
:0202A9000AAD9C
:0202AA000AAD9B
:0202AB000AAD9A
:0202AC000AAC9A
:0202AD000AAC99
:0202AE000AAC98
:0202AF000AAC97
:0202B0000AAC96
:0202B1000AAC95
:0202B2000AAC94
:0202B3000AAD92
:0202B4000AAB93
:0202B5000AAC91
:0202B6000AAC90
:0202B7000AAC8F
:0202B8000AAB8F
:0202B9000AAD8C
:0202BA000AAC8C
:0202BB000AAB8C
:0202BC000AAB8B
:0202BD000AAB8A
:0202BE000AAB89
:0202BF000AAC87
:0202C0000AAC86
:0202C1000AAB86
:0202C2000AAB85
:0202C3000AAC83
:0202C4000AAB83
:0202C5000AAA83
:0202C6000AAC80
:0202C7000AAC7F
:0202C8000AAB7F
:0202C9000AAB7E
:0202CA000AAB7D
:0202CB000AAB7C
:0202CC000AAB7B
:0202CD000AAB7A
:0202CE000AAB79
:0202CF000AAA79
:0202D0000AAB77
:0202D1000AAB76
:0202D2000AAB75
:0202D3000AAC73
:0202D4000AAB73
:0202D5000AAB72
:0202D6000AAB71
:0202D7000AAC6F
:0202D8000AAC6E
:0202D9000AAC6D
:0202DA000AAC6C
:0202DB000AAC6B
:0202DC000AAC6A
:0202DD000AAC69
:0202DE000AAC68
:0202DF000AAB68
:0202E0000AAB67
:0202E1000AAB66
:0202E2000AAB65
:0202E3000AAC63
:0202E4000AAC62
:0202E5000AAB62
:0202E6000AAC60
:0202E7000AAB60
:0202E8000AAC5E
:0202E9000AAB5E
:0202EA000AAB5D
:0202EB000AAB5C
:0202EC000AAD59
:0202ED000AAD58
:0202EE000AAD57
:0202EF000AAC57
:0202F0000AAC56
:0202F1000AAD54
:0202F2000AAD53
:0202F3000AAC53
:0202F4000AAC52
:0202F5000AAC51
:0202F6000AAC50
:0202F7000AAB50
:0202F8000AAC4E
:0202F9000AAC4D
:0202FA000AAB4D
:0202FB000AAD4A
:0202FC000AAC4A
:0202FD000AAC49
:0202FE000AAC48
:0202FF000AAC47
:020300000AAD44
:020301000AAC44
:020302000AAC43
:020303000AAC42
:020304000AAC41
:020305000AAB41
:020306000AAC3F
:020307000AAC3E
:020308000AAC3D
:020309000AAC3C
:02030A000AAC3B
:02030B000AAC3A
:02030C000AAC39
:02030D000AAC38
:02030E000AAB38
:02030F000AAB37
:020310000AAB36
:020311000AAC34
:020312000AAB34
:020313000AAC32
:020314000AAC31
:020315000AAC30
:020316000AAB30
:020317000AAB2F
:020318000AAB2E
:020319000AAB2D
:02031A000AAA2D
:02031B000AAC2A
:02031C000AAB2A
:02031D000AAC28
:02031E000AAB28
:02031F000AAC26
:020320000AAC25
:020321000AAB25
:020322000AAB24
:020323000AAC22
:020324000AAC21
:020325000AAC20
:020326000AAC1F
:020327000AAC1E
:020328000AAC1D
:020329000AAC1C
:02032A000AAC1B
:02032B000AAC1A
:02032C000AAC19
:02032D000AAC18
:02032E000AAC17
:02032F000AAC16
:020330000AAC15
:020331000AAC14
:020332000AAB14
:020333000AAB13
:020334000AAC11
:020335000AAB11
:020336000AAB10
:020337000AAD0D
:020338000AAD0C
:020339000AAC0C
:02033A000AAC0B
:02033B000AAC0A
:02033C000AAC09
:02033D000AAC08
:02033E000AAC07
:02033F000AAB07
:020340000AAC05
:020341000AAC04
:020342000AAC03
:020343000AAD01
:020344000AAD00
:020345000AAC00
:020346000AACFF
:020347000AADFD
:020348000AACFD
:020349000AACFC
:02034A000AACFB
:02034B000AADF9
:02034C000AACF9
:02034D000AACF8
:02034E000AACF7
:02034F000AABF7
:020350000AACF5
:020351000AADF3
:020352000AABF4
:020353000AABF3
:020354000AACF1
:020355000AACF0
:020356000AACEF
:020357000AACEE
:020358000AABEE
:020359000AADEB
:02035A000AACEB
:02035B000AACEA
:02035C000AACE9
:02035D000AADE7
:02035E000AADE6
:02035F000AACE6
:020360000AACE5
:020361000AADE3
:020362000AADE2
:020363000AACE2
:020364000AACE1
:020365000AACE0
:020366000AACDF
:020367000AACDE
:020368000AACDD
:020369000AACDC
:02036A000AACDB
:02036B000AACDA
:02036C000AABDA
:02036D000AACD8
:02036E000AACD7
:02036F000AAAD8
:020370000AACD5
:020371000AACD4
:020372000AACD3
:020373000AACD2
:020374000AACD1
:020375000AACD0
:020376000AACCF
:020377000AADCD
:020378000AADCC
:020379000AADCB
:02037A000AACCB
:02037B000AACCA
:02037C000AACC9
:02037D000AACC8
:02037E000AACC7
:02037F000AACC6
:020380000AACC5
:020381000AACC4
:020382000AACC3
:020383000AABC3
:020384000AACC1
:020385000AACC0
:020386000AACBF
:020387000AACBE
:020388000AACBD
:020389000AACBC
:02038A000AADBA
:02038B000AACBA
:02038C000AABBA
:02038D000AACB8
:02038E000AACB7
:02038F000AACB6
:020390000AACB5
:020391000AACB4
:020392000AACB3
:020393000AADB1
:020394000AABB2
:020395000AADAF
:020396000AADAE
:020397000AADAD
:020398000AABAE
:020399000AADAB
:02039A000AAEA9
:02039B000AACAA
:02039C000AABAA
:02039D000AACA8
:02039E000AACA7
:02039F000AADA5
:0203A00000005B
:0203A1000AABA5
:0203A2000AABA4
:0203A3000AABA3
:0203A4000AACA1
:0203A5000AABA1
:0203A6000AAC9F
:0203A7000AAC9E
:0203A8000AAD9C
:0203A9000AAC9C
:0203AA000AAC9B
:0203AB000AAC9A
:0203AC000AAD98
:0203AD000AAC98
:0203AE000AAB98
:0203AF000AAC96
:0203B0000AAE93
:0203B1000AAC94
:0203B2000AAC93
:0203B3000AAC92
:0203B4000AAC91
:0203B5000AAB91
:0203B6000AAC8F
:0203B7000AAC8E
:0203B8000AAC8D
:0203B9000AAB8D
:0203BA000AAB8C
:0203BB000AAC8A
:0203BC000AAC89
:0203BD000AAB89
:0203BE000AAC87
:0203BF000AAC86
:0203C0000AAC85
:0203C1000AAC84
:0203C2000AAC83
:0203C3000AAD81
:0203C4000AAC81
:0203C5000AAD7F
:0203C6000AAC7F
:0203C7000AAC7E
:0203C8000AAC7D
:0203C9000AAD7B
:0203CA000AAC7B
:0203CB000AAC7A
:0203CC000AAC79
:0203CD000AAC78
:0203CE000AAD76
:0203CF000AAC76
:0203D0000AAB76
:0203D1000AAC74
:0203D2000AAC73
:0203D3000AAC72
:0203D4000AAC71
:0203D5000AAC70
:0203D6000AAB70
:0203D7000AAB6F
:0203D8000AAC6D
:0203D9000AAA6E
:0203DA000AAC6B
:0203DB000AAB6B
:0203DC000AAC69
:0203DD000AAB69
:0203DE000AAB68
:0203DF000AAC66
:0203E0000AAB66
:0203E1000AAC64
:0203E2000AAC63
:0203E3000AAB63
:0203E4000AAD60
:0203E5000AAC60
:0203E6000AAC5F
:0203E7000AAC5E
:0203E8000AAC5D
:0203E9000AAB5D
:0203EA000AAC5B
:0203EB000AAD59
:0203EC000AAC59
:0203ED000AAC58
:0203EE000AAB58
:0203EF000AAB57
:0203F0000AAB56
:0203F1000AAC54
:0203F2000AAB54
:0203F3000AAC52
:0203F4000AAC51
:0203F5000AAC50
:0203F6000AAC4F
:0203F7000AAB4F
:0203F8000AAC4D
:0203F9000AAD4B
:0203FA000AAC4B
:0203FB000AAC4A
:0203FC000AAC49
:0203FD000AAC48
:0203FE000AAD46
:0203FF000AAD45
:00000001FF
